:020000000C945E
:100002002A000C9400000C9400000C9400000C9444
:1000120000000C9400000C9400000C9400000C945E
:1000220000000C9400000C9400000C9400000C944E
:1000320000000C9400000C9400000C9400000C943E
:1000420000000C9400000C9400000C9400000C942E
:100052000000F894EE27ECBBF1E0FBBFEBBFE5BF7D
:10006200F8E1F1BDE1BD8DE0A2E0BB27ED938A95F9
:10007200E9F780E098E0A0E6ED930197E9F7EFE574
:10008200EDBFE8E0EEBFC0E6D2E00C944800E0E04D
:10009200EBBBEFEFEABBE0E0E8BBEFEFE7BBE0E092
:1000A200E5BBEFEFE4BBE0E0E2BBEFEFE1BBE0E09A
:1000B200E3BFE2BFECBFEFBDEEBDEDBDECBDE7BD02
:1000C200E6BDEBBDEABDE9BDE8BDE2BDE5BDE4BD0F
:1000D200E3BDE5BFE4BFE9BFEAB9E0E8E8B9E0E0C3
:1000E200E0BFE6B9EDB9E6BFEFEFE8BBE1E032D041
:1000F200EFEFE8BBE2E02ED0E1E8E8BBE4E02AD093
:10010200EEE7E8BBE8E026D0EEE7E8BBE0E122D08C
:10011200E1E8E8BBE0E21ED0EFEFE8BBE0E21AD094
:10012200EFEFE8BBE0E816D0EFEFE2BBE1E019D079
:10013200E2E017D0E4E01FD0E8E01DD0E0E11BD000
:10014200E0E219D0E0E421D0EFEFE2BBE0E81DD01D
:10015200CBCFFFCFEBBBE1E0F0E0FA93EA930C9454
:10016200CD00E5BBE1E0F0E0FA93EA930E94CD0016
:10017200E0E0E2BB0895E5BBE1E0F0E0FA93EA9348
:100182000E94CD00ECEFE2BB0895E5BBE1E0F0E0B8
:10019200FA93EA930C94CD00E991F991309639F0F3
:1001A20080ED97E00197F1F7A8953197C9F7089587
:00000001FF
