:0E0000000C944E000C947E000C948D000C9419
:10000E009C000C9400000C9400000C9400000C94C6
:10001E0000000C9400000C9400000C9400000C9452
:10002E0000000C9400000C9400000C9400000C9442
:10003E0000000C9400000C9400000C9400000C9432
:10004E0000000C9400001027E80364000A00010071
:10005E000010000110000100494E5430203D2025B3
:10006E0069003E3E4B454C203720544D3C3C0049E8
:10007E004E5431203D20256900494E5432203D20FA
:10008E002569000080C00200700292000000F89402
:10009E00EE27ECBBF1E0FBBFEBBFE5BFF8E1F1BD36
:1000AE00E1BD8DE0A2E0BB27ED938A95E9F780E0F4
:1000BE0098E0A0E6ED930197E9F7E4E9F0E0859189
:1000CE009591009761F0A591B59105901590BF019E
:1000DE00F00105900D920197E1F7FB01F0CFEFE5EE
:1000EE00EDBFE8E0EEBFC0E6D2E00C94DC000E946B
:1000FE007E03F20131962F01662477240E948C0331
:10010E00E6E6F0E0FA93EA93F2012AC00E947E033B
:10011E0044245524F30131963F010E948C03EDE7F0
:10012E00F0E0FA93EA93F3011BC00E947E0344248D
:10013E00552466247724F40131964F01A7D0E4E6C6
:10014E00F0E00E94A003E0E0EA93EA9392D0E0E6AA
:10015E00F2E0FA93EA93E7E8F0E0FA93EA93F40117
:10016E000E94F7030E94040484E00E943303289641
:10017E00E0E6F2E0FA93EA93ABD0E0E0EA93E1E056
:10018E00EA9377D0E0E7F0E0FA93EA93AED0E99104
:10019E00EFBFF991E991B991A991999189917991CD
:1001AE006991F990199009901895E0E0EBBBEABBC4
:1001BE00E8BBE7BBE5BBE4BBE2BBE1BBE3BFE2BF31
:1001CE00ECBFEFBDEEBDEDBDECBDE7BDE6BDEBBDDD
:1001DE00EABDE9BDE8BDE2BDE5BDE4BDE3BDEBB7FB
:1001EE00E06EEBBFEAE0E5BFE0E0E4BFE0EEEABFC1
:1001FE00E0E0E9BFEAB9E0E8E8B9E0E0E0BFE6B97F
:10020E00EDB9E6BFE0E1EA9381D07894FFCFFFCF5E
:10021E00E881E07111F0AB9A01C0AB98E881E07211
:10022E0011F0AC9A01C0AC98E881E07411F0AD9A6F
:10023E0001C0AD98E881E07811F0AE9A01C0AE9899
:10024E0085E08A95F1F7AA9A8DE08A95F1F7AA983A
:10025E008DE08A95F1F78BC0E881EA93D9DFE881CA
:10026E00E295E883E881EA93D3DF85E88A95F1F792
:10027E007EC0E881F0E0E059FD4FE081A981EA0FF0
:10028E00EA93EADFB980A88022960895E2E00E9400
:10029E00A403ECE0EA93E0DFE1E00E94A403E0E0D7
:1002AE00AE2EBE2E0895A881AA3011F0BD1448F0CE
:1002BE00E0E0EA93A394AA92DCDFA881AA3009F4C5
:1002CE0056C0B394A89AE881EA93C6DFA8984FC0A7
:1002DE001A93A981BA81ED91A983BA831E2FE030BA
:1002EE0019F01A93E0DFF5CF0EC01A93E981FA8167
:1002FE003196E983FA833197E4911E2FE03019F09D
:10030E001A93D1DFF3CF188123960895A39AA49A56
:10031E00A59AA69AA29AA09AA19AAA98A898A998DC
:10032E00D880E881E058E0937202E881E054E093CF
:10033E007302E4E1F0E00E94A0030E94AA030E946F
:10034E00AA030E94AA03E0E2EA9362DF88EC90E03F
:10035E000197F1F7E8E2EA937FDFE4E0EA937CDFCE
:10036E00E5E8EA9379DFE6E0EA9376DF8FDF219620
:10037E0008951A930A93AA81BB8112960E94FC03D8
:10038E00309759F1AA81BB8114960E94FC038F010C
:10039E00309761F00230E0E01E07F0F0F80131977F
:1003AE008F01AA81BB811496ED93FC93AA81BB8128
:1003BE001296ED91FD913196FE93EE933197AC81AD
:1003CE00A083AA81BB810E94FC03FF232AF0ED913A
:1003DE00FD913196FE93EE9306C0AA81BB81EFEF9D
:1003EE00FFEFED93FC9319810881259608952697CA
:1003FE000E94090410E0AC85BD85E0E0F0E0ED93CD
:10040E00FC93EA89FB893196EA8BFB8B3197E49159
:10041E002E2FE03011F40C942B03E12FE03039F441
:10042E00253211F411E002C00E94B3030CC1E13079
:10043E00A9F4253219F40E94B30304C112E040E07E
:10044E0000E02D3211F401E0FEC02B3211F44BE22C
:10045E00FAC0203211F440E2F6C002C0E23039F4A4
:10046E0050E013E0203311F40068EDC004C0E33017
:10047E0011F00C942A03203310F02A3308F007C031
:10048E00AAE05A9F502DE22FE0535E0FDCC0E22F00
:10049E00E33649F40E94BC03E889F989A481AA9342
:1004AE000E94C203CFC0E33741F40E94BC030E94F6
:1004BE00CA030E9469031E2F0AC0E03761F40E942E
:1004CE00BC030E94CA030E9473031E2F08600260C1
:1004DE000F7730E035C0E43611F0E93611F40460E0
:1004EE0002C0E53731F4E4E5F0E0EE83FF8315E07A
:1004FE000DC0E83511F4086004C0E83711F00C9413
:10050E002903EEE5F0E0EE83FF8314E002FF14C052
:10051E000E94BC030E94D403AB85AA233AF4EA8559
:10052E00FB850E94F303EA87FB874DE2403011F012
:10053E001F5F01C00B7F04C00E94BC030E94D40346
:10054E0000FD11C0151778F407FF08C002FF04C0A4
:10055E000B7F242F115001C020E301C020E20E9426
:10056E00B3035150EFCF312F01FF17C03030A1F040
:10057E0003FF06C0EE81FF812591EE83FF8305C048
:10058E00AE81BF812D91AE83BF830E94B3035030E5
:10059E0009F051503150EACF4BC020E3EE81FF817C
:1005AE000E940004E887F987EE81FF813296EE8380
:1005BE00FF83E885F985AA85BB85AE17BF0750F086
:1005CE002F5FA885B985EA85FB85EA1BFB0BEA87B9
:1005DE00FB87EFCF2A3328F003FF02C0295F01C04B
:1005EE00295D04FD1AC0213320F4A885B985119721
:1005FE0009F409C0531710F000FF01C013C020E228
:10060E0007FF0BC020E3006102FF07C00B7F4A9378
:10061E000E94C203503009F051500E94B303503073
:10062E0009F051503150A885B985129708F0B5CF11
:10063E0000FF08C0503031F05150E0E2EA930E94C2
:10064E00C203F8CF10E0DDCEAC85BD850E94FC0361
:10065E000E94100464960895FF92F82E26970E9429
:10066E000B040E94DC03309719F4EFEFFFEF25C067
:10067E00DE0116960E94EF038D010E94DC03EE83CD
:10068E00FF83E0E0E887E987DE011A960E94EF0318
:10069E000E94FC03FA93EA931A930A93E0ECF1E0BA
:1006AE00FA93EA93FE013A96FA93EA93A0DE9F013B
:1006BE00AE81BF81E0E0EC93F9010E9412042A960C
:1006CE00FF900895A991B991EE27FF276D916623AA
:1006DE0011F03196FBCF0895AA27BB27E991F99126
:1006EE000590002011F01196FBCFFD0108950A929E
:1006FE001A92FA926A937A938A939A93AA93BA93D6
:10070E00EA93FA93EFB7EA930895882499240E9406
:10071E004D01E4E6F0E0FA93EA930E94E303E0E091
:10072E00EA93EA930E944001E0E6F2E0FA93EA933C
:10073E000895FA93EA930C94E303EA930E9433012B
:10074E00E3E0F0E0F6CFE0E3EA930E940F0188ECDD
:10075E0090E00197F1F708952A93ED85FE85FA93BF
:10076E00EA93E989FA8909950895E889F989349710
:10077E00E88BF98B0895ED85FE85FA93EA93E98966
:10078E00FA8909950895A889B98914960E94FC03DF
:10079E00EE83FF83FA93EA930895A889B989149694
:1007AE000E94FC03EA87FB870895DE011C960E94D7
:1007BE00EF030E94FC030895E991F991309639F008
:1007CE0080ED97E00197F1F7A8953197C9F7089555
:1007DE000024AF0DB01D0895F195E195F0400895F8
:1007EE006F2F660F660B762F0895ED91FC91119782
:1007FE0008950590F491E02D08957A936A93FA93F3
:10080E00EA9308955A934A933A932A931A930A9322
:10081E0008955D814C813B812A811981088108955B
:00000001FF
