:080000000C942A000C9400008E
:100008000C9400000C9400000C9400000C94000068
:100018000C9400000C9400000C9400000C94000058
:100028000C9400000C9400000C9400000C94000048
:100038000C9400000C9400000C9400000C94000038
:100048000C9400000C9400000C940000F894EE2727
:10005800ECBBF1E0FBBFEBBFE5BFF8E1F1BDE1BDF3
:100068008DE0A2E0BB27ED938A95E9F780E098E060
:10007800A0E6ED930197E9F7EFE5EDBFE8E0EEBF05
:10008800C0E6D2E00C944800E0E0E8BBEFEFE7BB45
:10009800E0E0E2BBE1BB809B06C0E3E306D0ECEC0A
:1000A80004D0EFEF02D0F7CFFFCFE8BBE4E6F0E0F3
:1000B800FA93EA930C946000E991F991309639F03B
:1000C80080ED97E00197F1F7A8953197C9F7089562
:00000001FF
