:060000000C942A000C9490
:1000060000000C9400000C9400000C9400000C946A
:1000160000000C9400000C9400000C9400000C945A
:1000260000000C9400000C9400000C9400000C944A
:1000360000000C9400000C9400000C9400000C943A
:1000460000000C9400000C9400000C940000F8943E
:10005600EE27ECBBF1E0FBBFEBBFE5BFF8E1F1BD7E
:10006600E1BD8DE0A2E0BB27ED938A95E9F780E03C
:1000760098E0A0E6ED930197E9F7EFE5EDBFE8E03C
:10008600EEBFC0E6D2E00C944800E0E0EBBBEABB72
:10009600E8BBE7BBE5BBE4BBE2BBE0E5E1BBE0E018
:1000A600E3BFE2BFECBFEFBDEEBDEDBDECBDE7BD0E
:1000B600E6BDEBBDEABDE9BDE8BDE2BDE5BDE4BD1B
:1000C600E3BDE5BFE4BFE9BFEAB9E0E8E8B9E0E0CF
:1000D600E0BFE6B9EDB9E6BF949AE4E0F0E0FA9342
:1000E600EA930E947F009498E6E0F0E0FA93EA93A0
:1000F6000E947F00F1CFFFCFE991F991309639F058
:1001060080ED97E00197F1F7A8953197C9F7089523
:00000001FF
