:100000000C942A000C9400000C9400000C94000046
:100010000C9400000C9400000C9400000C94000060
:100020000C9400000C9400000C9400000C94000050
:100030000C9400000C9400000C9400000C94000040
:100040000C9400000C9400000C9400000C94000030
:100050000C940000F894EE27ECBBF1E0FBBFEBBF83
:10006000E5BFF8E1F1BDE1BD8DE0A2E0BB27ED9376
:100070008A95E9F780E098E0A0E6ED930197E9F72B
:10008000EFE5EDBFE8E0EEBFC0E6D2E00C9448003B
:10009000E0E0EBBBEFEFEABBE0E0E8BBEFEFE7BB94
:1000A000E0E0E5BBEFEFE4BBE0E0E2BBEFEFE1BB9C
:1000B000E0E0E3BFE2BFECBFEFBDEEBDEDBDECBDE8
:1000C000E7BDE6BDEBBDEABDE9BDE8BDE2BDE5BD0E
:1000D000E4BDE3BDE5BFE4BFE9BFEAB9E0E8E8B9E4
:1000E000E0E0E0BFE6B9EDB9E6BFEFEFE8BBE1E085
:1000F0002CD0E2E02AD0E4E032D0E8E030D0E0E1F9
:1001000024D0E0E222D0E0E220D0E0E8EBBB31D026
:10011000E1E0E5BB2ED0E2E0E5BB2BD0E4E032D05D
:10012000E8E030D0E0E1E5BB24D0E0E2E5BB21D05F
:10013000E0E4E5BB1ED0E0E8E5BBE1E0F0E0FA93E7
:10014000EA930E94CC00D1CFFFCFEBBBE1E0F0E01F
:10015000FA93EA930E94CC00EFEFE8BB0895EBBB63
:10016000E1E0F0E0FA93EA930E94CC00E0E0E8BB23
:100170000895E1E0F0E0FA93EA930E94CC00EFEFFB
:10018000E2BB0895E5BBE1E0F0E0FA93EA930E9458
:10019000CC00E0E0E2BB0895E991F991309639F0A6
:1001A00080ED97E00197F1F7A8953197C9F7089589
:00000001FF
